:0300000002068E67
:0C068E00787FE4F6D8FD7581200206D5C7
:100815007EFF0604000000EF7EFF0605000000EFE6
:100825007EFF060F000100EF7EFF060F000200EFBE
:10083500C100C10141002C0041002D0041002900EB
:0D084500410028004100270042002A000069
:10001600E4FDFCC3ED9FEC9E5008000DBD00010CF5
:0200260080F167
:0100280022B5
:09076500F07A0079007B017D08A7
:0E076E00900023EBF0A3EAF0A3E9F0A3EDF076
:10077C00E4FFFE900026E0FDC3EF9DEE94005020B8
:10078C00900023E0FBA3E0FAA3E0F98F828E8312A2
:10079C000389F5993099FDC2990FBF00010E80D3E2
:0107AC00222A
:03000B0002071ACF
:10071A00C0E0C083C082C0D090002DE004F0C39432
:10072A000574809480401FA2A0300001B390002974
:10073A005005E004F08002E4F0300002B2A190001B
:10074A002DE4F075E13790002CE004F0758C4C75BF
:0B075A008A00D0D0D082D083D0E032E3
:03002B000205F9D2
:1005F900C0E0C0F0C083C082C0D075D00830CE7AC8
:10060900AFCBEFADCAFCEC1201D97B487AE1798A0C
:10061900783F12002EE4FBFA79687842120137120A
:10062900021290000DEEF0A3EFF0C2CE90002AE086
:10063900FEA3E0FF24CEFDEE34FFFC90000DE0FAAE
:10064900A3E0FBC39DEC6480F8EA6480984014EF52
:100659002432FFE43EFED3EB9FEE6480F8EA648027
:1006690098401190002AEAF0A3EBF0900028E4F0FA
:0A067900D2018006900028E004F092
:0B068300D0D0D082D083D0F0D0E03285
:030003000207E30E
:0D07E300C0E0C0F0C083C082C0D075D0104F
:1007F000780F7C007D017BFF7A0879157E007F08E9
:0A0800001203637A00790F12076AF1
:0B080A00D0D0D082D083D0F0D0E032FC
:030013000207AD34
:0D07AD00C0E0C0F0C083C082C0D075D01085
:1007BA00781B7C007D017BFF7A08791D7E007F080B
:0E07CA001203637B017A00791B7D0812076E13
:0B07D800D0D0D082D083D0F0D0E0322F
:1003C400D2AFD2A9D28C438901758C4CE4F58AD280
:1003D4008E438920758BFD758DFDD2ADD2CAD2CBEB
:1003E400D2C8C29FD29ED29CD2A8D2AAD288D28A84
:1003F40075E13790002CE0C3940A74809480401A0D
:10040400C2927F0A7E00120016D2923091FDE4F56A
:10041400CDF5CC90002CF075E1372001030205AB3B
:10042400900028E0C394027480948050030205ABCA
:1004340078007C007D017BFF7A0879257E007F08A7
:10044400120363E4900008F090002AE0FEA3E0FFAA
:10045400C39419EE648094804010EF944BEE648052
:10046400948050069000087401F0C3EF944BEE643E
:100474008094804010EF947DEE64809480500690C8
:1004840000087402F0C3EF947DEE64809480401001
:10049400EF94AFEE6480948050069000087403F0EB
:1004A400C3EF94AFEE648094804010EF94E1EE6467
:1004B40080948050069000087404F0C3EF94E1EE39
:1004C400648094804010EF9413EE6480948150060D
:1004D4009000087405F0C3EF9413EE648094814097
:1004E40010EF9445EE6480948150069000087406E1
:1004F400F0C3EF9445EE648094814010EF9477EE5E
:100504006480948150069000087407F0C3EF9477D8
:10051400EE648094814010EF94A9EE64809481503D
:10052400069000087408F0C3EF94A9EE64809481E7
:100534004010EF94DBEE64809481500690000874C0
:1005440009F0C3EF94DBEE648094814010EF940DC6
:10055400EE648094825006900008740AF0C3EF940D
:100564000DEE648094824010EF943FEE6480948298
:100574005006900008740BF0900008E0FF60219092
:100584000027E0FEEF6E6018900008E0900027F06E
:100594009000061207657FBC7E3412001675E137A1
:0705A400C201E4900028F001
:1005AB00900029E0C3940A7480948050030203F7EF
:1005BB0078007C007D017BFF7A08792D7E007F0817
:1005CB00120363A2A09200A2A0B392A13000047FF9
:1005DB000180027F02900006EF1207657FBC7E341C
:0B05EB0012001675E137E4900029F0C3
:0305F6000203F706
:10002E00EC4D6011E8497017ED33EC3304600DE4CC
:10003E00FCFFFEFD22E933E8330470F802027E1263
:10004E00024958046009E4CC248150062850090264
:10005E000288284003020285C0E0EB4A7044B98052
:10006E0006D0E0FB020274EF4E701CBD8008EBFF61
:10007E00EAFEE9FD80EBE98DF0A4FEE5F002011742
:10008E00E9CDF9EAFEEBFFEF89F0A4FCE5F0CE89AD
:10009E00F0A42EFFE435F0CD89F0A42DFEE435F06A
:1000AE008067EF4E7005BD80D780C3EF8BF0A4AC98
:1000BE00F0EE8BF0A42CFCE435F0F8EF8AF0A42CD3
:1000CE00E5F038FCE433CB8DF0A42CFCE5F03BF8E6
:1000DE00EE8AF0A42CFCE5F038F8E433CF89F0A4D6
:1000EE002CFCE5F038CF3400CE89F0A42FFFE5F0DC
:1000FE003EFEE433C98DF0A42EFEE5F039CD8AF034
:10010E00A42FFFE5F03EFEE43DFD33D0E0FB5007AB
:10011E000BBB000F020288EC2CFCEF33FFEE33FE1C
:06012E00ED33FD0202604A
:10013400020288EC5D046005E85904700302027E43
:10014400120249580460F6EC4860F2EC7004FDFEBB
:10015400FF22C860DB2481C85009C398600250069E
:100164000202859850CAF582E9294B4A7005AB8290
:1001740002027475F0007C1A7880C3EF9BEE9AED4E
:1001840099400DC3EF9BFFEE9AFEED99FDE842F016
:10019400DC23ACF0D0E0FFD0E0FED0E0FDAB822069
:1001A400E7101BEB60BAEC2CFCEF33FFEE33FEEDF3
:1001B40033FD020260E803F830E705C0F075F00093
:1001C400EF2FFFEE33FEED33FD40B830E7C280AAD7
:1001D40075F020800E75F010800575F0087D007EA6
:1001E400007F003392D530D5031203B6EC334010B0
:1001F400EF33FFEE33FEED33FDEC33FCD5F0ED22AF
:0E020400E5F0247EA2D513CC92E7CDCEFF22EA
:10021200EDD2E7CD33EC3392D524814006E4FFFEE4
:10022200FDFC22FCE4CFCECDCC24E0501174FF8043
:10023200EDC3CC13CCCD13CDCE13CECF13CF0470E0
:07024200F030D5DE0203B627
:10024900E9D2E7C933E833F892D5EDD2E7CD33ECFB
:0702590033FC5002B2D52274
:10026000EC30E7100FBF000C0EBE00080DBD0004FF
:100270000BEB6014A2D5EB13FCED92E7FD2274FFAB
:10028000FCFDFEFF22E480F8A2D574FF13FC7D8004
:03029000E480EF18
:10069A000203C4E493A3F8E493A34003F68001F2AF
:1006AA0008DFF48029E493A3F85407240CC8C33361
:1006BA00C4540F4420C8834004F456800146F6DF30
:1006CA00E4800B0102040810204080900835E47E83
:1006DA00019360BCA3FF543F30E509541FFEE49325
:1006EA00A360010ECF54C025E060A840B8E493A3EC
:1006FA00FAE493A3F8E493A3C8C582C8CAC583CA17
:10070A00F0A3C8C582C8CAC583CADFE9DEE780BECE
:0108520000A5
:10029300E709F608DFFA8046E709F208DFFA803E4D
:1002A30088828C83E709F0A3DFFA8032E309F6083A
:1002B300DFFA8078E309F208DFFA807088828C83A2
:1002C300E309F0A3DFFA806489828A83E0A3F60856
:1002D300DFFA805889828A83E0A3F208DFFA804C30
:1002E30080D280FA80C680D4806980F28033801007
:1002F30080A680EA809A80A880DA80E280CA803370
:1003030089828A83ECFAE493A3C8C582C8CCC583E7
:10031300CCF0A3C8C582C8CCC583CCDFE9DEE780B7
:100323000D89828A83E493A3F608DFF9ECFAA9F036
:10033300EDFB2289828A83ECFAE0A3C8C582C8CC8C
:10034300C583CCF0A3C8C582C8CCC583CCDFEADEA5
:10035300E880DB89828A83E493A3F208DFF980CC07
:1003630088F0EF60010E4E60C388F0ED2402B40400
:100373000050B9F582EB2402B4040050AF232345A7
:0603830082239002E373E7
:10038900BB010CE58229F582E5833AF583E0225029
:1003990006E92582F8E622BBFE06E92582F8E22273
:0D03A900E58229F582E5833AF583E493228D
:0E03B600C3E49FFFE49EFEE49DFDE49CFC2258
:00000001FF
