:0300000002095D95
:0C095D00787FE4F6D8FD7581200209A423
:1008CA0041542B434950534855540A0041542B4331
:1008DA00474154543F0A0041542B435354543D2238
:1008EA00434D4E4554220A0041542B434949435231
:1008FA000A0041542B43494653520A0041542B43A0
:10090A00495053544152543D22544350222C2231CF
:10091A0032302E37382E3230332E313730222C22D5
:10092A003132373737220A0041542B434950534555
:10093A004E440A00677073001A0041542B43495011
:10094A00434C4F53450A002330303030303030307A
:03095A0030310039
:100AB200C100C1014100000041000C0041000D00D5
:100AC2004100020041000E004201270000480004DC
:100AD2007EFF0600000000EF4100010F5E00A5FF4F
:100AE20008CAFF08D6FF08E1FF08F2FF08FCFF0969
:100AF20006FF0932FF093EFF0942FF094441012B6B
:0A0B02000041000300420129000039
:100C7900E4FDFCC3ED9FEC9E5008000DBD00010C86
:020C890080F1F8
:010C8B002246
:0D0B5B0090000AEFF07B017A0079047D081C
:0E0B6800900145EBF0A3EAF0A3E9F0A3EDF055
:100B7600E4FFFE900148E0FDC3EF9DEE9400502097
:100B8600900145E0FBA3E0FAA3E0F98F828E831281
:100B96000293F5993099FDC2990FBF00010E80D3DB
:010BA600222C
:100A5400900003E0FF75F003A424A5F582E43400BC
:100A6400F583E0FBA3E0FAA3E0F9C003C002C001F0
:100A7400EF75F003A424A5F582E43400F583E0FBCC
:100A8400A3E0FAA3E0F9120C64AD07D001D002D0C0
:100A940003120B68E490012BF0900003E004F0E0F3
:0E0AA40075F00A84E5F0F07FE87E03020C791D
:0D001600E4F5E7F5E5F5E675E380F5E42295
:100C380075E78175E5018FE4EEF5E375E64675E63F
:070C4800B900AFE202001643
:0C0C13007F007E40120C4F900001E0FDBD
:100C1F0075E78175E5028FE4EEF5E3AF158FE275A9
:090C2F00E64675E6B90002001664
:100C4F0075E78175E5038FE4EEF5E375E64675E626
:050C5F00B900020016BF
:03000B00020B0DD8
:100B0D00C0E0C083C082C0D090000CE004F0C3945C
:100B1D000574809480401CA2A0300001B390000D9C
:100B2D005005E004F08002E4F0300002B2A1900024
:100B3D000CE4F090012BE004F0900000E004F0755F
:0E0B4D008C4C758A00D0D0D082D083D0E0329C
:03002B00020825A3
:10082500C0E0C0F0C083C082C0D075D00820CE0320
:030835000208BFF7
:10083800AFCBEFADCAFCEC1201D99001311202E442
:100848007F727E1C7D177C3D900131E0F8A3E0F9B2
:10085800A3E0FAA3E0FB12002EE4FBFAF9784012B9
:100868000137120212900135EEF0A3EFF0C2CE90DC
:100878000127E0FCA3E0FD24CEFBEC34FFFAC3EF34
:100888009BEE9A4014ED2432FFE43CFED3900136EF
:10089800E09F900135E09E4018900135E0FFA3E00D
:1008A800900127CFF0A3EFF0900002E4F0D201808E
:0708B80006900002E004F0CD
:0B08BF00D0D0D082D083D0F0D0E03247
:0300230002076A67
:10076A00C0E0C0F0C083C082C0D075D01820980302
:03077A0002081A58
:10077D00900137E599F0C298E0FF900129E475F0FA
:10078D00011202C0FC74C325F0F58274003CF583A0
:10079D00EFF0640A7077900129E0FEA3E0FF24C317
:1007AD00F58274003EF583E4F09000C3E06424709C
:1007BD00519000C6E064477049A3E064477043A3BD
:1007CD00E06441703DC3EF943CEE940040349001E1
:1007DD002AE09464900129E094005026780F7C0063
:1007ED007D017B017A0079C31203BC90013B74FF3C
:1007FD00F0A37409F0A37451F07B017A00790F1204
:0D080D0009E9900129E4F0A3F09000C3F088
:0B081A00D0D0D082D083D0F0D0E032EC
:03000300020BA746
:100BA700C0E0C083C082C0D075D010900001E0C300
:100BB700941E7480948050159000077406F090007E
:100BC70001E004F090000A120B5F120C13D0D0D092
:060BD70082D083D0E03261
:03001300020BDD00
:100BDD00C0E0C083C082C0D075D010900001E0D3BA
:100BED0094057480948040159000077406F0900071
:100BFD0001E014F090000A120B5F120C13D0D0D04C
:060C0D0082D083D0E0322A
:10044600D2AFD2A9D28C438901758C4CE4F58AD2FD
:100456008E438920758BFD758DFDD2ADD2CAD2CB68
:10046600D2C8D2ACC29FD29ED29CD2A8D2AAD288DF
:10047600D28A75E137FE7F64FD7B017A0079C3126B
:1004860003D97E007F647D007B017A00790F120319
:10049600D99000BA7401F0A37400F0A3740FF07F32
:1004A600207E4E120C797F007E40120C389000019F
:1004B600EFF09000077406F0120B5B900000E0C3AB
:1004C600940A74809480401AC2927F0A7E00120CAD
:1004D60079D2923091FDE4F5CDF5CC900000F0751F
:1004E600E13720010302063F900002E0C394027444
:0804F600809480500302063FD0
:1004FE00E490012CF0900127E0FEA3E0FF9419EEAA
:10050E009400400EEF944BEE9400500690012C7424
:10051E0001F0C3EF944BEE9400400EEF947DEE94F9
:10052E0000500690012C7402F0C3EF947DEE9400FF
:10053E00400EEF94AFEE9400500690012C7403F031
:10054E00C3EF94AFEE9400400EEF94E1EE940050A2
:10055E000690012C7404F0C3EF94E1EE9400400E6B
:10056E00EF9413EE9401500690012C7405F0C3EF36
:10057E009413EE9401400EEF9445EE9401500690C4
:10058E00012C7406F0C3EF9445EE9401400EEF94E7
:10059E0077EE9401500690012C7407F0C3EF947718
:1005AE00EE9401400EEF94A9EE9401500690012CAA
:1005BE007408F0C3EF94A9EE9401400EEF94DBEEB5
:1005CE009401500690012C7409F0C3EF94DBEE9465
:1005DE0001400EEF940DEE9402500690012C740A19
:1005EE00F0C3EF940DEE9402400EEF943FEE9402A2
:1005FE00500690012C740BF090012CE0FF602B90B4
:10060E00000EE0FEEF6E602290012CE090000EF0E6
:10061E00900007740FF09000097401F0A3120B5EA6
:10062E007FBC7E34120C7975E137C201E490000272
:01063E00F0CB
:10063F0090000DE0C3940A748094804030A2A09281
:10064F0000A2A0B392A1900007740FF0900009745C
:10065F0002F03000047F0180027F02120B5B7FBC2F
:10066F007E34120C7975E137E490000DF0900003A1
:10067F00E0B40A0040030204C190068FF8282873E3
:10068F000206AD0206C00206D20206E40206F60218
:10069F00070802071A02072C02073E0207549001AF
:1006AF002BE0D3940A7480948050030204C1020794
:1006BF004E90012BE0D3940A74809480500302046F
:1006CF00C1807C90012BE0D3940A748094805003F6
:1006DF000204C1806A90012BE0D39432748094801D
:1006EF0050030204C1805890012BE0D394327480E0
:1006FF00948050030204C1804690012BE0D3940AEA
:10070F007480948050030204C1803490012BE0D395
:10071F0094967480948050030204C1802290012B20
:10072F00E0D394327480948050030204C1801090FF
:10073F00012BE0D394057480948050030204C112FE
:10074F000A540204C190012BE0D3940A7480948060
:0B075F0050030204C1120A540204C13E
:10002E00EC4D6011E8497017ED33EC3304600DE4CC
:10003E00FCFFFEFD22E933E8330470F802027E1263
:10004E00024958046009E4CC248150062850090264
:10005E000288284003020285C0E0EB4A7044B98052
:10006E0006D0E0FB020274EF4E701CBD8008EBFF61
:10007E00EAFEE9FD80EBE98DF0A4FEE5F002011742
:10008E00E9CDF9EAFEEBFFEF89F0A4FCE5F0CE89AD
:10009E00F0A42EFFE435F0CD89F0A42DFEE435F06A
:1000AE008067EF4E7005BD80D780C3EF8BF0A4AC98
:1000BE00F0EE8BF0A42CFCE435F0F8EF8AF0A42CD3
:1000CE00E5F038FCE433CB8DF0A42CFCE5F03BF8E6
:1000DE00EE8AF0A42CFCE5F038F8E433CF89F0A4D6
:1000EE002CFCE5F038CF3400CE89F0A42FFFE5F0DC
:1000FE003EFEE433C98DF0A42EFEE5F039CD8AF034
:10010E00A42FFFE5F03EFEE43DFD33D0E0FB5007AB
:10011E000BBB000F020288EC2CFCEF33FFEE33FE1C
:06012E00ED33FD0202604A
:10013400020288EC5D046005E85904700302027E43
:10014400120249580460F6EC4860F2EC7004FDFEBB
:10015400FF22C860DB2481C85009C398600250069E
:100164000202859850CAF582E9294B4A7005AB8290
:1001740002027475F0007C1A7880C3EF9BEE9AED4E
:1001840099400DC3EF9BFFEE9AFEED99FDE842F016
:10019400DC23ACF0D0E0FFD0E0FED0E0FDAB822069
:1001A400E7101BEB60BAEC2CFCEF33FFEE33FEEDF3
:1001B40033FD020260E803F830E705C0F075F00093
:1001C400EF2FFFEE33FEED33FD40B830E7C280AAD7
:1001D40075F020800E75F010800575F0087D007EA6
:1001E400007F003392D530D5031202D6EC33401091
:1001F400EF33FFEE33FEED33FDEC33FCD5F0ED22AF
:0E020400E5F0247EA2D513CC92E7CDCEFF22EA
:10021200EDD2E7CD33EC3392D524814006E4FFFEE4
:10022200FDFC22FCE4CFCECDCC24E0501174FF8043
:10023200EDC3CC13CCCD13CDCE13CECF13CF0470E0
:07024200F030D5DE0202D608
:10024900E9D2E7C933E833F892D5EDD2E7CD33ECFB
:0702590033FC5002B2D52274
:10026000EC30E7100FBF000C0EBE00080DBD0004FF
:100270000BEB6014A2D5EB13FCED92E7FD2274FFAB
:10028000FCFDFEFF22E480F8A2D574FF13FC7D8004
:03029000E480EF18
:10096900020446E493A3F8E493A34003F68001F25A
:1009790008DFF48029E493A3F85407240CC8C3338F
:10098900C4540F4420C8834004F456800146F6DF5E
:10099900E4800B0102040810204080900AB2E47E32
:1009A900019360BCA3FF543F30E509541FFEE49353
:1009B900A360010ECF54C025E060A840B8E493A31A
:1009C900FAE493A3F8E493A3C8C582C8CAC583CA45
:1009D900F0A3C8C582C8CAC583CADFE9DEE780BEFD
:010B0C0000E8
:10029300BB010CE58229F582E5833AF583E0225020
:1002A30006E92582F8E622BBFE06E92582F8E2226A
:0D02B300E58229F582E5833AF583E4932284
:1002C000A3F8E0C5F025F0F0E582158270021583F1
:0602D000E0C838F0E8224E
:0E02D600C3E49FFFE49EFEE49DFDE49CFC2239
:0C02E400ECF0A3EDF0A3EEF0A3EFF0228D
:1009E900900138EBF0A3EAF0A3E9F090013EEBF0B7
:1009F900A3EAF0A3E9F0900138E0FBA3E475F00164
:100A09001202C0A9F0FA12040570EB90013974FFC3
:100A1900F5F012043090013BE0FBA3E475F00112FC
:100A290002C0A9F0FA120405FF900138E0FBA3E423
:100A390075F0011202C0A9F0FAEF12041E70D690E7
:0B0A4900013EE0FBA3E0FAA3E0F9226D
:1002F000E709F60870FA8046E709F20870FA803ECE
:1003000088828C83E709F0A370FA807EE309F608FF
:1003100070FA8076E309F20870FA806E88828C8326
:10032000E309F0A370FA806289828A83E0A3F60869
:1003300070FA805689828A83E0A3F20870FA804AB4
:1003400080D280FA80C680D4806580F280318010AF
:1003500080A680EA809A80A880DA80E280CA803114
:1003600089828A83ECFAE493A3C8C582C8CCC5838A
:10037000CCF0A3C8C582C8CCC583CC70E9800D89F8
:10038000828A83E493A3F60870F9ECFAA9F0EDFBF6
:100390002289828A83ECFAE0A3C8C582C8CCC583CF
:1003A000CCF0A3C8C582C8CCC583CC70EA80DD89F7
:1003B000828A83E493A3F20870F980CE88F0ED245A
:1003C00002B4040050C4F582EB2402B4040050BA15
:0903D000232345822390034073AE
:100C6400E4FFFE120405600C0FEF70010E09E97039
:050C7400F20A80EF22EE
:1003D900EF4E6012EF60010EEDBB010B89828A833B
:1003E900F0A3DFFCDEFA2289F05007F709DFFCA948
:0C03F900F022BBFEFCF309DFFCA9F0229F
:10040500BB010689828A83E0225002E722BBFE02F5
:09041500E32289828A83E4932228
:10041E00BB010689828A83F0225002F722BBFE01BD
:02042E00F322B7
:10043000C5F0F8A3E028F0C5F0F8E5821582700257
:060440001583E038F022F4
:00000001FF
