:030000000200BC3F
:0C00BC00787FE4F6D8FD75810702009201
:1000A900E4FDFCC3ED9FEC9E5008000DBD00010C62
:0200B90080F1D4
:0100BB002222
:0E002600900000EBF0A3EAF0A3E9F0A3EDF0E8
:10003400E4FFFE900003E0FDC3EF9DEE940050202A
:10004400900000E0FBA3E0FAA3E0F98F828E831214
:100054000065F5993099FDC2990FBF00010E80D358
:010064002279
:03002300020003D5
:09000300C0E0C0D075D000C007B8
:0E000C00E4FF309804AF99C2988F993099FDA7
:07001A00D007D0D0D0E03286
:10009200D2AFD28E438920758BFD758DFDD2ACC255
:0700A2009FD29ED29C80FE5C
:10006500BB010CE58229F582E5833AF583E0225050
:1000750006E92582F8E622BBFE06E92582F8E2229A
:0D008500E58229F582E5833AF583E49322B4
:00000001FF
