:030000000208C132
:0C08C100787FE4F6D8FD7581200209085C
:10094D0041542B434950534855540A0041542B43AD
:10095D00474154543F0A0041542B435354543D22B4
:10096D00434D4E4554220A0041542B4349494352AD
:10097D000A0041542B43494653520A0041542B431C
:10098D00495053544152543D22544350222C22314C
:10099D0032302E37382E3230332E313730222C2252
:1009AD003132373737220A0041542B4349505345D2
:1009BD004E440A00677073001A0041542B4349508E
:0709CD00434C4F53450A00A3
:100A3200C100C1014100000041000C0041000D0055
:100A42004100020041000E004200F500004800048F
:100A52007EFF0600000000EF4100010F5E0073FF01
:100A6200094DFF0959FF0964FF0975FF097FFF0955
:100A720089FF09B5FF09C1FF09C5FF09C74100F98F
:0A0A820000410003004200F70000ED
:100BF900E4FDFCC3ED9FEC9E5008000DBD00010C07
:020C090080F178
:010C0B0022C6
:0D0ADB0090000AEFF07B017A0079047D089D
:0E0AE80090010AEBF0A3EAF0A3E9F0A3EDF011
:100AF600E4FFFE90010DE0FDC3EF9DEE9400502053
:100B060090010AE0FBA3E0FAA3E0F98F828E83123C
:100B16000293F5993099FDC2990FBF00010E80D35B
:010B260022AC
:1009D400900003E0FF75F003A42473F582E434006F
:1009E400F583E0FBA3E0FAA3E0F9C003C002C00171
:1009F400EF75F003A42473F582E43400F583E0FB7F
:100A0400A3E0FAA3E0F9120BE4AD07D001D002D0C1
:100A140003120AE8E49000F9F0900003E004F0E027
:0E0A240075F00A84E5F0F07FE87E03020BF91E
:0D001600E4F5E7F5E5F5E675E380F5E42295
:100BB80075E78175E5018FE4EEF5E375E64675E6C0
:070BC800B900AFE2020016C4
:0C0B93007F007E40120BCF900001E0FDBF
:100B9F0075E78175E5028FE4EEF5E3AF158FE2752A
:090BAF00E64675E6B900020016E5
:100BCF0075E78175E5038FE4EEF5E375E64675E6A7
:050BDF00B90002001640
:03000B00020A8D59
:100A8D00C0E0C083C082C0D090000CE004F0C394DD
:100A9D000574809480401CA2A0300001B390000D1D
:100AAD005005E004F08002E4F0300002B2A19000A5
:100ABD000CE4F09000F9E004F0900000E004F07513
:0E0ACD008C4C758A00D0D0D082D083D0E0321D
:03002B0002076E5B
:10076E00C0E0C0F0C083C082C0D075D00820CE03D8
:03077E000208145A
:10078100AFCBEFADCAFCEC1201D99000FF1202E42D
:100791007F727E1C7D177C3D9000FFE0F8A3E0F99D
:1007A100A3E0FAA3E0FB12002EE4FBFAF978401271
:1007B1000137120212900103EEF0A3EFF0C2CE90C6
:1007C10000F5E0FCA3E0FD24CEFBEC34FFFAC3EF1F
:1007D1009BEA6480F8EE648098401AED2432FFE4CD
:1007E1003CFED3900104E09FEE6480F8900103E0A9
:1007F1006480984018900103E0FFA3E09000F5CFDA
:10080100F0A3EFF0900002E4F0D201800690000224
:03081100E004F010
:0B081400D0D0D082D083D0F0D0E032F2
:0300230002081FB1
:10081F00C0E0C0F0C083C082C0D075D0182098034C
:03082F000208B606
:10083200900105E599F0C298E0FF9000F7E475F0A9
:10084200011202C0FC749125F0F58274003CF5831C
:10085200EFF0640A705E9000F7E0FEA3E0FF2491DF
:10086200F58274003EF583E4F0900091E064247018
:1008720038900094E064477030A3E0B4472BA3E0C3
:10088200B44126C3EF9432EE9400401D9000F8E08C
:1008920094649000F7E09400500F780F7C007D0183
:1008A2007B017A0079911203BC9000F7E4F0A3F087
:0408B200900091F031
:0B08B600D0D0D082D083D0F0D0E03250
:03000300020B27C6
:100B2700C0E0C083C082C0D075D010900001E0C380
:100B3700941E7480948050159000077406F09000FE
:100B470001E004F090000A120ADF120B93D0D0D014
:060B570082D083D0E032E1
:03001300020B5D80
:100B5D00C0E0C083C082C0D075D010900001E0D33A
:100B6D0094057480948040159000077406F09000F1
:100B7D0001E014F090000A120ADF120B93D0D0D0CE
:060B8D0082D083D0E032AB
:10041E00D2AFD2A9D28C438901758C4CE4F58AD225
:10042E008E438920758BFD758DFDD2ADD2CAD2CB90
:10043E00D2C8D2ACC29FD29ED29CD2A8D2AAD28807
:10044E00D28A75E137FE7F64FD7B017A00799112C5
:10045E0003D97E007F647D007B017A00790F120341
:10046E00D99000887401F0A37400F0A3740FF07F8C
:10047E00207E4E120BF97F007E40120BB8900001C9
:10048E00EFF09000077406F0120ADB900000E0C354
:10049E00940A74809480401AC2927F0A7E00120BD6
:1004AE00F9D2923091FDE4F5CDF5CC900000F075C7
:1004BE00E137200103020643900002E0C394027468
:0804CE008094805003020643F4
:1004D600E49000FAF09000F5E0FEA3E0FF9419EE38
:1004E600648094804010EF944BEE648094805006B4
:1004F6009000FA7401F0C3EF944BEE648094804050
:1005060010EF947DEE6480948050069000FA740299
:10051600F0C3EF947DEE648094804010EF94AFEECC
:100526006480948050069000FA7403F0C3EF94AF91
:10053600EE648094804010EF94E1EE6480948050E5
:10054600069000FA7404F0C3EF94E1EE64809480A0
:100556004010EF9413EE6480948150069000FA7474
:1005660005F0C3EF9413EE648094814010EF944538
:10057600EE6480948150069000FA7406F0C3EF94FE
:1005860045EE648094814010EF9477EE6480948108
:1005960050069000FA7407F0C3EF9477EE648094E7
:1005A600814010EF94A9EE6480948150069000FA81
:1005B6007408F0C3EF94A9EE648094814010EF9420
:1005C600DBEE6480948150069000FA7409F0C3EF64
:1005D60094DBEE648094814010EF940DEE64809479
:1005E6008250069000FA740AF0C3EF940DEE648010
:1005F60094824010EF943FEE6480948250069000FF
:10060600FA740BF09000FAE0FF602B90000EE0FE0B
:10061600EF6E60229000FAE090000EF090000774F2
:100626000FF09000097401F0A3120ADE7FBC7E343D
:0D063600120BF975E137C201E4900002F0EB
:1006430090000DE0C3940A748094804030A2A0927D
:1006530000A2A0B392A1900007740FF09000097458
:1006630002F03000047F0180027F02120ADB7FBCAC
:100673007E34120BF975E137E490000DF09000031E
:10068300E0B40A004003020499900693F828287303
:100693000206B10206C40206D60206E80206FA0200
:1006A300070C02071E020730020742020758900098
:1006B300F9E0D3940A7480948050030204990207EA
:1006C300529000F9E0D3940A74809480500302049A
:1006D30099807C9000F9E0D3940A7480948050034D
:1006E300020499806A9000F9E0D394327480948074
:1006F300500302049980589000F9E0D39432748037
:100703009480500302049980469000F9E0D3940A40
:1007130074809480500302049980349000F9E0D3EC
:10072300949674809480500302049980229000F977
:10073300E0D3943274809480500302049980109023
:1007430000F9E0D394057480948050030204991255
:1007530009D40204999000F9E0D3940A7480948038
:0B07630050030204991209D40204990B
:10002E00EC4D6011E8497017ED33EC3304600DE4CC
:10003E00FCFFFEFD22E933E8330470F802027E1263
:10004E00024958046009E4CC248150062850090264
:10005E000288284003020285C0E0EB4A7044B98052
:10006E0006D0E0FB020274EF4E701CBD8008EBFF61
:10007E00EAFEE9FD80EBE98DF0A4FEE5F002011742
:10008E00E9CDF9EAFEEBFFEF89F0A4FCE5F0CE89AD
:10009E00F0A42EFFE435F0CD89F0A42DFEE435F06A
:1000AE008067EF4E7005BD80D780C3EF8BF0A4AC98
:1000BE00F0EE8BF0A42CFCE435F0F8EF8AF0A42CD3
:1000CE00E5F038FCE433CB8DF0A42CFCE5F03BF8E6
:1000DE00EE8AF0A42CFCE5F038F8E433CF89F0A4D6
:1000EE002CFCE5F038CF3400CE89F0A42FFFE5F0DC
:1000FE003EFEE433C98DF0A42EFEE5F039CD8AF034
:10010E00A42FFFE5F03EFEE43DFD33D0E0FB5007AB
:10011E000BBB000F020288EC2CFCEF33FFEE33FE1C
:06012E00ED33FD0202604A
:10013400020288EC5D046005E85904700302027E43
:10014400120249580460F6EC4860F2EC7004FDFEBB
:10015400FF22C860DB2481C85009C398600250069E
:100164000202859850CAF582E9294B4A7005AB8290
:1001740002027475F0007C1A7880C3EF9BEE9AED4E
:1001840099400DC3EF9BFFEE9AFEED99FDE842F016
:10019400DC23ACF0D0E0FFD0E0FED0E0FDAB822069
:1001A400E7101BEB60BAEC2CFCEF33FFEE33FEEDF3
:1001B40033FD020260E803F830E705C0F075F00093
:1001C400EF2FFFEE33FEED33FD40B830E7C280AAD7
:1001D40075F020800E75F010800575F0087D007EA6
:1001E400007F003392D530D5031202D6EC33401091
:1001F400EF33FFEE33FEED33FDEC33FCD5F0ED22AF
:0E020400E5F0247EA2D513CC92E7CDCEFF22EA
:10021200EDD2E7CD33EC3392D524814006E4FFFEE4
:10022200FDFC22FCE4CFCECDCC24E0501174FF8043
:10023200EDC3CC13CCCD13CDCE13CECF13CF0470E0
:07024200F030D5DE0202D608
:10024900E9D2E7C933E833F892D5EDD2E7CD33ECFB
:0702590033FC5002B2D52274
:10026000EC30E7100FBF000C0EBE00080DBD0004FF
:100270000BEB6014A2D5EB13FCED92E7FD2274FFAB
:10028000FCFDFEFF22E480F8A2D574FF13FC7D8004
:03029000E480EF18
:1008CD0002041EE493A3F8E493A34003F68001F21F
:1008DD0008DFF48029E493A3F85407240CC8C3332C
:1008ED00C4540F4420C8834004F456800146F6DFFB
:1008FD00E4800B0102040810204080900A32E47E4F
:10090D00019360BCA3FF543F30E509541FFEE493EF
:10091D00A360010ECF54C025E060A840B8E493A3B6
:10092D00FAE493A3F8E493A3C8C582C8CAC583CAE1
:10093D00F0A3C8C582C8CAC583CADFE9DEE780BE99
:010A8C000069
:10029300BB010CE58229F582E5833AF583E0225020
:1002A30006E92582F8E622BBFE06E92582F8E2226A
:0D02B300E58229F582E5833AF583E4932284
:1002C000A3F8E0C5F025F0F0E582158270021583F1
:0602D000E0C838F0E8224E
:0E02D600C3E49FFFE49EFEE49DFDE49CFC2239
:0C02E400ECF0A3EDF0A3EEF0A3EFF0228D
:1002F000E709F60870FA8046E709F20870FA803ECE
:1003000088828C83E709F0A370FA807EE309F608FF
:1003100070FA8076E309F20870FA806E88828C8326
:10032000E309F0A370FA806289828A83E0A3F60869
:1003300070FA805689828A83E0A3F20870FA804AB4
:1003400080D280FA80C680D4806580F280318010AF
:1003500080A680EA809A80A880DA80E280CA803114
:1003600089828A83ECFAE493A3C8C582C8CCC5838A
:10037000CCF0A3C8C582C8CCC583CC70E9800D89F8
:10038000828A83E493A3F60870F9ECFAA9F0EDFBF6
:100390002289828A83ECFAE0A3C8C582C8CCC583CF
:1003A000CCF0A3C8C582C8CCC583CC70EA80DD89F7
:1003B000828A83E493A3F20870F980CE88F0ED245A
:1003C00002B4040050C4F582EB2402B4040050BA15
:0903D000232345822390034073AE
:100BE400E4FFFE120405600C0FEF70010E09E970BA
:050BF400F20A80EF226F
:1003D900EF4E6012EF60010EEDBB010B89828A833B
:1003E900F0A3DFFCDEFA2289F05007F709DFFCA948
:0C03F900F022BBFEFCF309DFFCA9F0229F
:10040500BB010689828A83E0225002E722BBFE02F5
:09041500E32289828A83E4932228
:00000001FF
