:030000000207D51F
:0C07D500787FE4F6D8FD75812002081C36
:1008E8007EFF060F000100EF7EFF0642000000EFCA
:1008F8007EFF060F000200EF7EFF0642000000EFB9
:1008C800C100C101C10241002500410026004100CC
:0F08D800220041002100410020004200230000C7
:10090800E4FDFCC3ED9FEC9E5008000DBD00010CFA
:0209180080F16C
:01091A0022BA
:0C000E0074092FF582E43400F583E0FF54
:08001A008F993099FDC2992273
:03000B0002086187
:10086100C0E0C083C082C0D0900026E004F0C394F1
:100871000574809480403BA20030A001B3501A90CF
:100881000022E004F0C3940474809480401AA2A072
:100891009200A2A0B392A1800F900022E0C3940421
:1008A100748094805002E4F0300002B2A1900026DE
:1008B100E4F0900025E004F0758C4C758A00D0D0EE
:0708C100D082D083D0E032A9
:03002B0002074089
:10074000C0E0C0F0C083C082C0D075D00830CE7A7F
:10075000AFCBEFADCAFCEC12056C7B487AE1798A2D
:10076000783F1203C1E4FBFA796878421204CA1296
:1007700005A590001EEEF0A3EFF0C2CE900023E09E
:10078000FEA3E0FF24CEFDEE34FFFC90001EE0FA55
:10079000A3E0FBC39DEC6480F8EA6480984014EF0A
:1007A0002432FFE43EFED3EB9FEE6480F8EA6480DF
:1007B000984011900023EAF0A3EBF0900021E4F0C0
:0A07C000D2028006900021E004F050
:0B07CA00D0D0D082D083D0F0D0E0323D
:10002E00D2AFD2A9D28C438901758C4CE4F58AD219
:10003E008E438920758BFD758DFDD2ADD2CAD2CB84
:10004E00D2C8C29FD29ED29C900025E0C3940A745F
:10005E008094804017C2927F0A7E00120908D292C5
:10006E003091FDE4F5CDF5CC900025F02002030291
:10007E0002B9900021E0C394027480948050030270
:02008E0002B9B5
:1000900078017C007D017BFF7A0879E87E007F088B
:1000A0001206F678097C007D017BFF7A0879F07EE4
:1000B000007F081206F6E490001BF0C202900021B7
:1000C000F0900000F0900000E0FFC394087480946A
:1000D00080500B12000E900000E004F080E7E490E6
:1000E0000000F0900000E0C3940A748094805045B2
:1000F000E490001CF0A3F0C20320981790001CE4C9
:1001000075F00112071CFEC3E5F094E8EE9403407D
:10011000E8D2033003047F018002AF99900000E031
:0D0120002411F582E43400F583EFF0C2985D
:10012D00900000E004F080AE900017E06401700ACA
:10013D007FE87E031209080202B9900023E0FEA3B6
:10014D00E0FFC39419EE648094804010EF944BEE61
:10015D0064809480500690001B7401F0C3EF944BA3
:10016D00EE648094804010EF947DEE648094805016
:10017D000690001B7402F0C3EF947DEE64809480B2
:10018D004010EF94AFEE64809480500690001B7485
:10019D0003F0C3EF94AFEE648094804010EF94E1D0
:1001AD00EE64809480500690001B7404F0C3EF94AD
:1001BD00E1EE648094804010EF9413EE648094819E
:1001CD00500690001B7405F0C3EF9413EE648094F9
:1001DD00814010EF9445EE64809481500690001B91
:1001ED007406F0C3EF9445EE648094814010EF9453
:1001FD0077EE64809481500690001B7407F0C3EF76
:10020D009477EE648094814010EF94A9EE6480940D
:10021D0081500690001B7408F0C3EF94A9EE648022
:10022D0094814010EF94DBEE648094815006900031
:10023D001B7409F0C3EF94DBEE648094814010EFE2
:10024D00940DEE64809482500690001B740AF0C3E6
:10025D00EF940DEE648094824010EF943FEE648035
:10026D009482500690001B740BF090001BE0FF6011
:10027D003B900020E0FEEF6E603290001BE090009E
:10028D0020F0900007F0E4900000F0900000E0FFF7
:10029D00C3940874809480501374012FF582E43454
:0C02AD0000120016900000E004F080DF5A
:1002B900900022E0C3940474809480500302005695
:1002C90078017C007D017BFF7A0879F87E007F0840
:1002D9001206F678097C007D017BFF7A0979007E98
:1002E900007F081206F6E4900000F0900000E0FF9D
:1002F900C3940874809480500B12000E900000E0A3
:1003090004F080E7E4900000F0900000E0C3940A54
:0603190074809480504541
:10031F00E490001BF0A3F0C20320981790001BE499
:10032F0075F00112071CFEC3E5F094E8EE9403404C
:10033F00E8D2033003047F018002AF99900000E000
:0D034F002411F582E43400F583EFF0C2982C
:10035C00900000E004F080AE900017E06401700A99
:10036C007FE87E03120908020056A200300101B397
:10037C0040030200563000047F0180027F0290008F
:10038C0007EFF0E4900000F0900000E0FFC3940849
:10039C0074809480501374012FF582E434001200A1
:1003AC0016900000E004F080DFA2009201E49000BF
:0203BC0022F02D
:0303BE00020056E4
:1003C100EC4D6011E8497017ED33EC3304600DE436
:1003D100FCFFFEFD22E933E8330470F80206111236
:1003E10005DC58046009E4CC248150062850090238
:1003F100061B284003020618C0E0EB4A7044B9808E
:1004010006D0E0FB020607EF4E701CBD8008EBFF33
:10041100EAFEE9FD80EBE98DF0A4FEE5F00204AA15
:10042100E9CDF9EAFEEBFFEF89F0A4FCE5F0CE8916
:10043100F0A42EFFE435F0CD89F0A42DFEE435F0D3
:100441008067EF4E7005BD80D780C3EF8BF0A4AC01
:10045100F0EE8BF0A42CFCE435F0F8EF8AF0A42C3C
:10046100E5F038FCE433CB8DF0A42CFCE5F03BF84F
:10047100EE8AF0A42CFCE5F038F8E433CF89F0A43F
:100481002CFCE5F038CF3400CE89F0A42FFFE5F045
:100491003EFEE433C98DF0A42EFEE5F039CD8AF09D
:1004A100A42FFFE5F03EFEE43DFD33D0E0FB500715
:1004B1000BBB000F02061BEC2CFCEF33FFEE33FEEF
:0604C100ED33FD0205F31E
:1004C70002061BEC5D046005E8590470030206117F
:1004D7001205DC580460F6EC4860F2EC7004FDFE8F
:1004E700FF22C860DB2481C85009C3986002500608
:1004F7000206189850CAF582E9294B4A7005AB8263
:1005070002060775F0007C1A7880C3EF9BEE9AED20
:1005170099400DC3EF9BFFEE9AFEED99FDE842F07F
:10052700DC23ACF0D0E0FFD0E0FED0E0FDAB8220D2
:10053700E7101BEB60BAEC2CFCEF33FFEE33FEED5C
:1005470033FD0205F3E803F830E705C0F075F00066
:10055700EF2FFFEE33FEED33FD40B830E7C280AA40
:1005670075F020800E75F010800575F0087D007E0F
:10057700007F003392D530D503120732EC33401099
:10058700EF33FFEE33FEED33FDEC33FCD5F0ED2218
:0E059700E5F0247EA2D513CC92E7CDCEFF2254
:1005A500EDD2E7CD33EC3392D524814006E4FFFE4E
:1005B500FDFC22FCE4CFCECDCC24E0501174FF80AD
:1005C500EDC3CC13CCCD13CDCE13CECF13CF04704A
:0705D500F030D5DE02073211
:1005DC00E9D2E7C933E833F892D5EDD2E7CD33EC65
:0705EC0033FC5002B2D522DE
:1005F300EC30E7100FBF000C0EBE00080DBD000469
:100603000BEB6014A2D5EB13FCED92E7FD2274FF14
:10061300FCFDFEFF22E480F8A2D574FF13FC7D806D
:03062300E480EF81
:1007E10002002EE493A3F8E493A34003F68001F200
:1007F10008DFF48029E493A3F85407240CC8C33319
:10080100C4540F4420C8834004F456800146F6DFE7
:10081100E4800B01020408102040809008C8E47EA7
:10082100019360BCA3FF543F30E509541FFEE493DC
:10083100A360010ECF54C025E060A840B8E493A3A3
:10084100FAE493A3F8E493A3C8C582C8CAC583CACE
:10085100F0A3C8C582C8CAC583CADFE9DEE780BE86
:0108E7000010
:10062600E709F608DFFA8046E709F208DFFA803EB6
:1006360088828C83E709F0A3DFFA8032E309F608A3
:10064600DFFA8078E309F208DFFA807088828C830B
:10065600E309F0A3DFFA806489828A83E0A3F608BF
:10066600DFFA805889828A83E0A3F208DFFA804C99
:1006760080D280FA80C680D4806980F28033801070
:1006860080A680EA809A80A880DA80E280CA8033D9
:1006960089828A83ECFAE493A3C8C582C8CCC58351
:1006A600CCF0A3C8C582C8CCC583CCDFE9DEE78021
:1006B6000D89828A83E493A3F608DFF9ECFAA9F0A0
:1006C600EDFB2289828A83ECFAE0A3C8C582C8CCF6
:1006D600C583CCF0A3C8C582C8CCC583CCDFEADE0F
:1006E600E880DB89828A83E493A3F208DFF980CC71
:1006F60088F0EF60010E4E60C388F0ED2402B4046A
:100706000050B9F582EB2402B4040050AF23234510
:06071600822390067673B9
:10071C00C5F0F8A3E028F0C5F0F8E5821582700268
:06072C001583E038F02205
:0E073200C3E49FFFE49EFEE49DFDE49CFC22D8
:00000001FF
