:030000000208BB38
:0C08BB00787FE4F6D8FD75812002090268
:1009CD007EFF060F000100EF41542B435354543D5D
:1009DD0022434D4E4554220A0D0041542B434949A3
:1009ED0043520A0D0041542B434950535441525424
:1009FD003D22544350222C223132302E37382E32A4
:100A0D0030332E313730222C31323737370A0D0043
:100A1D0041542B43495053454E440A0D0041542B2C
:100A2D00434950434C4F53450A0D0041542B434904
:100A3D0050534855540A0D007EFF060F000200EF7B
:10094700C100C1014100CD004100CE004100660059
:100957004200CB00004100650041000000606400D8
:10096700016973206E756C6C0000000000000000C8
:100977000000000000000000000000000000000070
:100987000000000000000000000000000000000060
:100997000000000000000000000000000000000050
:1009A7000000000000000000000000000000000040
:1009B7000000000000000000000000000000000030
:0509C70000000000002B
:040B36007FE87E03D3
:100B3A00E4FDFCC3ED9FEC9E5008000DBD00010CC6
:020B4A0080F138
:010B4C002286
:040B4D00F583E0FF4D
:080B51008F993099FDC2992231
:03000B00020AC91D
:100AC900C0E0C083C082C0D09000CEE004F0C394DF
:100AD9000574809480403BA20030A001B3501A9065
:100AE9000066E004F0C3940474809480401AA2A0C4
:100AF9009200A2A0B392A1800F900066E0C3940473
:100B0900748094805002E4F0300002B2A19000CECB
:100B1900E4F09000CDE004F0900065E004F0758CFD
:0D0B29004C758A00D0D0D082D083D0E0324D
:03002B00020A4D79
:100A4D00C0E0C0F0C083C082C0D075D00830CE6188
:100A5D00AFCBEFADCAFCEC1201D97B487AE1798AB4
:100A6D00783F12002EE4FBFA7968784212013712B2
:100A7D000212900141EEF0A3EFF0C2CE9000CBE058
:100A8D00FEA3E0FF24CEFDEE34FFFC900141E0FA21
:100A9D00A3E0FBC39DEA9C400EEF2432FFE43EFE33
:100AAD00D3EB9FEA9E400A9000CBEAF0A3EBF0D285
:010ABD000137
:0B0ABE00D0D0D082D083D0F0D0E03246
:03002300020827A9
:10082700C0E0C0F0C083C082C0D075D018309879BE
:10083700900143E599F0C298E0FF900000E0FE04C4
:10084700F074672EF582E43400F583EFF0EF640A65
:100857007057900000E0FF2467F582E43400F583C9
:10086700E4F0900067E06424703690006AE0644723
:10087700702EA3E0B44729A3E0B441247E00C3EF60
:10088700943C748094804018EF9450748094805006
:100897000F78017C007D017B017A00796712046380
:0908A700900000E4F0900067F0FD
:0B08B000D0D0D082D083D0F0D0E03256
:10049900D2AFD2A9D28C438901758C4CE4F58AD2AA
:1004A9008E438920758BFD758DFDD2ADD2CAD2CB15
:1004B900D2C8D2ACC29FD29ED29C9000CDE0C39448
:1004C90014748094804017D2927F0A7E00120B3AEE
:1004D900C2923091FDE4F5CDF5CC9000CDF020012C
:0404E900030205EC19
:1004ED0078D07C007D017BFF7A0979CD7E007F0875
:1004FD00120363E49000D8F0C2019000CBE0FEA39C
:10050D00E0FFC39419EE9400400EEF944BEE94006F
:10051D0050069000D87401F0C3EF944BEE94004058
:10052D000EEF947DEE940050069000D87402F0C347
:10053D00EF947DEE9400400EEF94AFEE94005006D4
:10054D009000D87403F0C3EF94AFEE9400400EEF1B
:10055D0094E1EE940050069000D87404F0C3EF942B
:10056D00E1EE9400400EEF9413EE940150069000CE
:10057D00D87405F0C3EF9413EE9401400EEF94453B
:10058D00EE940150069000D87406F0C3EF9445EE3A
:10059D009401400EEF9477EE940150069000D874BC
:1005AD0007F0C3EF9477EE9401400EEF94A9EE940B
:1005BD000150069000D87408F09000D8E09000D655
:1005CD00F0E49000CFF09000CFE0C39408748094D5
:0F05DD00805005E004F080EE7F907E1A120B3AFA
:1005EC00900065E0D394F47480948150030207D09A
:1005FC0078D07C007D017BFF7A0979D57E007F1253
:10060C0012036378E27C007D017BFF7A0979E77E37
:10061C00007F0B12036378ED7C007D017BFF7A0970
:10062C0079F27E007F2B12036378187C017D017BAD
:10063C00FF7A0A791D7E007F0D12036390012574E9
:10064C001AF078267C017D017BFF7A0A792A7E00DC
:10065C007F0E12036378347C017D017BFF7A0A796B
:10066C00387E007F0D120363E49000CFF07B017A9B
:10067C000079D012000E9000CFE0FDC39FE49E5095
:10068C001374D02DF582E43400120B4D9000CFE0A2
:10069C0004F080D9120B36E49000CFF07B017A0085
:1006AC0079E212000E9000CFE0FDC39FE49E501340
:1006BC0074E22DF582E43400120B4D9000CFE0046F
:1006CC00F080D9120B36E49000CFF07B017A0079E0
:1006DC00ED12000E9000CFE0FDC39FE49E5013740A
:1006EC00ED2DF582E43400120B4D9000CFE004F0B8
:1006FC0080D97F887E13120B3AE49000CFF07B01F7
:10070C007A01791812000E9000CFE0FDC39FE49E91
:10071C00501374182DF582E43401120B4D9000CF58
:10072C00E004F080D9120B36E49000CFF07B017A14
:10073C0000790112000E9000CFE0FDC39FE49E50A3
:10074C001374012DF582E43400120B4D9000CFE0B0
:10075C0004F080D9120B36900125E0FF120B517F6B
:10076C00E8120B3AE49000CFF07B017A0179261263
:10077C00000E9000CFE0FDC39FE49E501374262D15
:10078C00F582E43401120B4D9000CFE004F080D9D7
:10079C00120B36E49000CFF07B017A017934120011
:1007AC000E9000CFE0FDC39FE49E501374342DF5E2
:1007BC0082E43401120B4D9000CFE004F080D9E4B8
:0407CC00900065F044
:1007D000900066E0C394047480948050030204C3C4
:1007E00078D07C007D017BFF7A0A79457E007F0806
:1007F0001203633000047F0180027F029000D6EF75
:10080000F0E49000CFF09000CFE0C394087480949F
:10081000805005E004F080EEE4900066F07F587EA2
:040820001B120B3A62
:030824000204C308
:10002E00EC4D6011E8497017ED33EC3304600DE4CC
:10003E00FCFFFEFD22E933E8330470F802027E1263
:10004E00024958046009E4CC248150062850090264
:10005E000288284003020285C0E0EB4A7044B98052
:10006E0006D0E0FB020274EF4E701CBD8008EBFF61
:10007E00EAFEE9FD80EBE98DF0A4FEE5F002011742
:10008E00E9CDF9EAFEEBFFEF89F0A4FCE5F0CE89AD
:10009E00F0A42EFFE435F0CD89F0A42DFEE435F06A
:1000AE008067EF4E7005BD80D780C3EF8BF0A4AC98
:1000BE00F0EE8BF0A42CFCE435F0F8EF8AF0A42CD3
:1000CE00E5F038FCE433CB8DF0A42CFCE5F03BF8E6
:1000DE00EE8AF0A42CFCE5F038F8E433CF89F0A4D6
:1000EE002CFCE5F038CF3400CE89F0A42FFFE5F0DC
:1000FE003EFEE433C98DF0A42EFEE5F039CD8AF034
:10010E00A42FFFE5F03EFEE43DFD33D0E0FB5007AB
:10011E000BBB000F020288EC2CFCEF33FFEE33FE1C
:06012E00ED33FD0202604A
:10013400020288EC5D046005E85904700302027E43
:10014400120249580460F6EC4860F2EC7004FDFEBB
:10015400FF22C860DB2481C85009C398600250069E
:100164000202859850CAF582E9294B4A7005AB8290
:1001740002027475F0007C1A7880C3EF9BEE9AED4E
:1001840099400DC3EF9BFFEE9AFEED99FDE842F016
:10019400DC23ACF0D0E0FFD0E0FED0E0FDAB822069
:1001A400E7101BEB60BAEC2CFCEF33FFEE33FEEDF3
:1001B40033FD020260E803F830E705C0F075F00093
:1001C400EF2FFFEE33FEED33FD40B830E7C280AAD7
:1001D40075F020800E75F010800575F0087D007EA6
:1001E400007F003392D530D503120389EC334010DD
:1001F400EF33FFEE33FEED33FDEC33FCD5F0ED22AF
:0E020400E5F0247EA2D513CC92E7CDCEFF22EA
:10021200EDD2E7CD33EC3392D524814006E4FFFEE4
:10022200FDFC22FCE4CFCECDCC24E0501174FF8043
:10023200EDC3CC13CCCD13CDCE13CECF13CF0470E0
:07024200F030D5DE02038954
:10024900E9D2E7C933E833F892D5EDD2E7CD33ECFB
:0702590033FC5002B2D52274
:10026000EC30E7100FBF000C0EBE00080DBD0004FF
:100270000BEB6014A2D5EB13FCED92E7FD2274FFAB
:10028000FCFDFEFF22E480F8A2D574FF13FC7D8004
:03029000E480EF18
:1008C700020499E493A3F8E493A34003F68001F2AA
:1008D70008DFF48029E493A3F85407240CC8C33332
:1008E700C4540F4420C8834004F456800146F6DF01
:1008F700E4800B0102040810204080900947E47E41
:10090700019360BCA3FF543F30E509541FFEE493F5
:10091700A360010ECF54C025E060A840B8E493A3BC
:10092700FAE493A3F8E493A3C8C582C8CAC583CAE7
:10093700F0A3C8C582C8CAC583CADFE9DEE780BE9F
:0109CC00002A
:10029300E709F608DFFA8046E709F208DFFA803E4D
:1002A30088828C83E709F0A3DFFA8032E309F6083A
:1002B300DFFA8078E309F208DFFA807088828C83A2
:1002C300E309F0A3DFFA806489828A83E0A3F60856
:1002D300DFFA805889828A83E0A3F208DFFA804C30
:1002E30080D280FA80C680D4806980F28033801007
:1002F30080A680EA809A80A880DA80E280CA803370
:1003030089828A83ECFAE493A3C8C582C8CCC583E7
:10031300CCF0A3C8C582C8CCC583CCDFE9DEE780B7
:100323000D89828A83E493A3F608DFF9ECFAA9F036
:10033300EDFB2289828A83ECFAE0A3C8C582C8CC8C
:10034300C583CCF0A3C8C582C8CCC583CCDFEADEA5
:10035300E880DB89828A83E493A3F208DFF980CC07
:1003630088F0EF60010E4E60C388F0ED2402B40400
:100373000050B9F582EB2402B4040050AF232345A7
:0603830082239002E373E7
:0E038900C3E49FFFE49EFEE49DFDE49CFC2285
:10039700E709F60870FA8046E709F20870FA803E26
:1003A70088828C83E709F0A370FA807EE309F60858
:1003B70070FA8076E309F20870FA806E88828C837F
:1003C700E309F0A370FA806289828A83E0A3F608C2
:1003D70070FA805689828A83E0A3F20870FA804A0D
:1003E70080D280FA80C680D4806580F28031801008
:1003F70080A680EA809A80A880DA80E280CA80316D
:1004070089828A83ECFAE493A3C8C582C8CCC583E2
:10041700CCF0A3C8C582C8CCC583CC70E9800D8950
:10042700828A83E493A3F60870F9ECFAA9F0EDFB4E
:100437002289828A83ECFAE0A3C8C582C8CCC58327
:10044700CCF0A3C8C582C8CCC583CC70EA80DD894F
:10045700828A83E493A3F20870F980CE88F0ED24B2
:1004670002B4040050C4F582EB2402B4040050BA6D
:0904770023234582239003E7735F
:10000E00E4FFFE120480600C0FEF70010E09E97020
:05001E00F20A80EF2250
:10048000BB010689828A83E0225002E722BBFE027A
:09049000E32289828A83E49322AD
:00000001FF
