:03000000020EC429
:0C0EC400787FE4F6D8FD758121020F0B49
:1010F9002573007EFF060F000100EF7EFF060F003B
:031109000200EFF2
:100F5000C109C10A4100CD004100CE004100660038
:100F60004200CB00004100650041000000606400C9
:100F7000016973206E756C6C0000000000000000B9
:100F80000000000000000000000000000000000061
:100F90000000000000000000000000000000000051
:100FA0000000000000000000000000000000000041
:100FB0000000000000000000000000000000000031
:100FC0000000000000000000000000000000000021
:050FD00000000000001C
:1010E600E4FDFCC3ED9FEC9E5008000DBD00010C15
:0210F60080F187
:0110F80022D5
:0C000E0074D02FF582E43400F583E0FF8D
:08001A008F993099FDC2992273
:03000B000210528E
:10105200C0E0C083C082C0D09000CEE004F0C39450
:101062000574809480403BA20930A001B3501A90CD
:101072000066E004F0C3940474809480401AA2A035
:101082009209A2A0B392A1800F900066E0C39404DB
:10109200748094805002E4F0300902B2A19000CE34
:1010A200E4F09000CDE004F0900065E004F0758C6F
:0D10B2004C758A00D0D0D082D083D0E032BF
:03002B00020FD6EB
:100FD600C0E0C0F0C083C082C0D075D00830CE61FA
:100FE600AFCBEFADCAFCEC1201D97B487AE1798A26
:100FF600783F12002EE4FBFA796878421201371224
:101006000212900109EEF0A3EFF0C2CE9000CBE001
:10101600FEA3E0FF24CEFDEE34FFFC900109E0FACA
:10102600A3E0FBC39DEA9C400EEF2432FFE43EFEA4
:10103600D3EB9FEA9E400A9000CBEAF0A3EBF0D2F6
:011046000A9F
:0B104700D0D0D082D083D0F0D0E032B7
:03002300020E309A
:100E3000C0E0C0F0C083C082C0D075D018309879AF
:100E400090010BE599F0C298E0FF900000E0FE04ED
:100E5000F074672EF582E43400F583EFF0EF640A56
:100E60007057900000E0FF2467F582E43400F583BA
:100E7000E4F0900067E06424703690006AE0644714
:100E8000702EA3E0B44729A3E0B441247E00C3EF51
:100E9000943C748094804018EF94507480948050F7
:100EA0000F78017C007D017B017A0079671207AB26
:090EB000900000E4F0900067F0EE
:0B0EB900D0D0D082D083D0F0D0E03247
:100C4B00D2AFD2A9D28C438901758C4CE4F58AD2F0
:100C5B008E438920758BFD758DFDD2ADD2CAD2CB5B
:100C6B00D2C8D2ACC29FD29ED29C9000CDE0C3948E
:100C7B0014748094804017D2927F0A7E001210E683
:100C8B00C2923091FDE4F5CDF5CC9000CDF0200A69
:040C9B0003020DA59E
:100C9F0078D07C007D017BFF7A1079FC7E007F0885
:100CAF0012060DE49000D8F0C20A9000CBE0FEA32C
:100CBF00E0FFC39419EE9400400EEF944BEE9400B6
:100CCF0050069000D87401F0C3EF944BEE9400409F
:100CDF000EEF947DEE940050069000D87402F0C38E
:100CEF00EF947DEE9400400EEF94AFEE940050061B
:100CFF009000D87403F0C3EF94AFEE9400400EEF62
:100D0F0094E1EE940050069000D87404F0C3EF9471
:100D1F00E1EE9400400EEF9413EE94015006900014
:100D2F00D87405F0C3EF9413EE9401400EEF944581
:100D3F00EE940150069000D87406F0C3EF9445EE80
:100D4F009401400EEF9477EE940150069000D87402
:100D5F0007F0C3EF9477EE9401400EEF94A9EE9451
:100D6F000150069000D87408F09000D8E09000D69B
:100D7F00F0E49000CFF09000CFE0FFC394087480B0
:100D8F009480500B12000E9000CFE004F080E77FAC
:060D9F00907E1A1210E61E
:100DA500900065E0D394C8748094804020D29990D7
:100DB50000DC7401F0A37400F0A37401F07BFF7AEA
:100DC5001079F9120833C299E4900065F090006635
:0D0DD500E0C39404748094805003020C75F8
:100DE20078D07C007D017BFF7A1179047E007F0838
:100DF20012060D3009047F0180027F029000D6EFB7
:100E0200F0E49000CFF09000CFE0FFC3940874802C
:100E12009480500B12000E9000CFE004F080E7E4C3
:0B0E2200900066F07F587E1B1210E667
:030E2D00020C753F
:10002E00EC4D6011E8497017ED33EC3304600DE4CC
:10003E00FCFFFEFD22E933E8330470F802027E1263
:10004E00024958046009E4CC248150062850090264
:10005E000288284003020285C0E0EB4A7044B98052
:10006E0006D0E0FB020274EF4E701CBD8008EBFF61
:10007E00EAFEE9FD80EBE98DF0A4FEE5F002011742
:10008E00E9CDF9EAFEEBFFEF89F0A4FCE5F0CE89AD
:10009E00F0A42EFFE435F0CD89F0A42DFEE435F06A
:1000AE008067EF4E7005BD80D780C3EF8BF0A4AC98
:1000BE00F0EE8BF0A42CFCE435F0F8EF8AF0A42CD3
:1000CE00E5F038FCE433CB8DF0A42CFCE5F03BF8E6
:1000DE00EE8AF0A42CFCE5F038F8E433CF89F0A4D6
:1000EE002CFCE5F038CF3400CE89F0A42FFFE5F0DC
:1000FE003EFEE433C98DF0A42EFEE5F039CD8AF034
:10010E00A42FFFE5F03EFEE43DFD33D0E0FB5007AB
:10011E000BBB000F020288EC2CFCEF33FFEE33FE1C
:06012E00ED33FD0202604A
:10013400020288EC5D046005E85904700302027E43
:10014400120249580460F6EC4860F2EC7004FDFEBB
:10015400FF22C860DB2481C85009C398600250069E
:100164000202859850CAF582E9294B4A7005AB8290
:1001740002027475F0007C1A7880C3EF9BEE9AED4E
:1001840099400DC3EF9BFFEE9AFEED99FDE842F016
:10019400DC23ACF0D0E0FFD0E0FED0E0FDAB822069
:1001A400E7101BEB60BAEC2CFCEF33FFEE33FEEDF3
:1001B40033FD020260E803F830E705C0F075F00093
:1001C400EF2FFFEE33FEED33FD40B830E7C280AAD7
:1001D40075F020800E75F010800575F0087D007EA6
:1001E400007F003392D530D50312068BEC334010D8
:1001F400EF33FFEE33FEED33FDEC33FCD5F0ED22AF
:0E020400E5F0247EA2D513CC92E7CDCEFF22EA
:10021200EDD2E7CD33EC3392D524814006E4FFFEE4
:10022200FDFC22FCE4CFCECDCC24E0501174FF8043
:10023200EDC3CC13CCCD13CDCE13CECF13CF0470E0
:07024200F030D5DE02068B4F
:1007C800E51024DCF582E43400F583E0051022907E
:1007D80000D93007039000DCE475F0011206990295
:1007E80006332000E97F2ED2008018EF540F2490A2
:1007F800D43440D4FF30040BEF24BFB41A005003A4
:100808002461FFE511600215110514E51470020555
:100818001330070E9000D9E475F001120699EF0223
:1008280006790210BF7403D2078003E4C207F510EB
:100838009000D91206B0E4F511F513F514E511602E
:10084800077F2012080B80F57512FFC201C200C293
:1008580002C203C205C206C2081207D7FF700D30D4
:1008680007057F0012081CAF14AE1322B4255FC21F
:10087800D5C2041207D7FF24D0B40A00501A75F065
:100888000A781130D50508B6FF0106C6A426F62059
:10089800D5047002D20380D924CFB41A00EF5004D3
:1008A800C2E5D204020B0ED20180C6D20080C0D2AB
:1008B8000280BCD2D580BAD20580B47F2012080B42
:1008C8002002077401B5110040F11207C8FF120891
:1008D8000B020845D208D20680951207C8FB1207FA
:1008E800C8FA1207C8F94A4B7006790C7A0C7BFFD4
:1008F80020022EE511602A7E008E82758300120682
:100908004C60060EEE651270F0C2D5EBC0E0EAC08E
:10091800E0E9C0E0EE120B6FD0E0F9D0E0FAD0E0E9
:10092800FB120633FF60AAEBC0E0EAC0E0E9C0E0D2
:1009380012080BD0E02401F9D0E03400FAD0E0FB33
:10094800E5120460DCD512D98087D20280A2120B8E
:100958005160F7E512700104120293A912600DE5C7
:1009680012600914F512120BF9EF60F3EA30E7028E
:10097800F404C3995079EAF425120430E701E40439
:10098800F512800D120B5160C1EA051225121202F0
:1009980093EA900108F030E701E4251204D5120427
:1009A80020050114120B6FE4C0E0120BF990010846
:1009B800E0601320E70714F01207F3802204F0D058
:1009C800E014C0E07F001207F3E51260071207EA9F
:1009D8001512800B3005031207EAD0E0020845D053
:1009E800E00480C4120B51609EE512041202939039
:1009F8000108EAF0E5122005026001042404120B44
:010A08006F7E
:100A090074FF04C0E0120BF91207F3E51220050286
:100A190060031207EAD0E0B512E87F451207FD909E
:100A29000108E07F2B30E7047F2DF404C0E01208B1
:100A39000BD0E075F00A84C0F01207F4D0E0120779
:100A4900F4020845791080027908C206C2088008B4
:100A5900D2D5790A8004790AC2D5E512047002F563
:100A690012E4FAFDFEFF1207C8FC7B0820011312ED
:100A790007C8FD7B1030000A1207C8FE1207C8FF1D
:100A89007B20EC3382D592D55013C3E43000069F06
:100A9900FFE49EFEE42001039DFDE49CFCE4CBF809
:100AA900C201EC700CCFCECDCCE824F8F870F380FD
:100AB90017C3EF33FFEE33FEED33FDEC33FCEB33BD
:100AC900FB994002FB0FD8E9EB300105F8D0E0C4EF
:100AD90048B201C0E00AEC4D4E4F78207B0070C24D
:100AE900EAB5120040BCC0E0120B71D0F0D0E02092
:100AF9000104C4C0E0C4B201C0F01207F4D0F0D5BB
:100B0900F0EB0208451206B908E2530A4D5808B33A
:100B19004C08AF420A514F0A59440A594908C84377
:100B29000A5F55098C4609EC450956470C2C5008B3
:100B3900B72D08BB2E08DE2B08BF2308DC200C15B7
:100B49002A087748000008D6E512B4FF0375120693
:100B59001207C8FC1207C8FD1207C8FE1207C8FF12
:100B69009001010202D0790AA2D5200314300509A7
:100B7900B910020404B9080104A2D52006025001E3
:100B8900042002689202B511005034C0E07F203081
:100B990003197F30A20272067205500F120BC8C2E8
:100BA90002C206C205C2087F30800F300503E9C0C2
:100BB900E012080B300503D0E0F9D0E0B511CC30D4
:100BC90005177F30B9100C12080B7F583004077FC6
:100BD900788003B9080312080B3002057F2D02083B
:100BE9000B7F202008F87F2B2006F322920280CF6A
:100BF9007F00B40700500B2401F582E43401F5832A
:100C0900E0FF22286E756C6C2900D2011207C830EA
:100C190001F8C201781130D50108F60208772D5084
:100C29004349581207C82403B405004001E4900C55
:100C390027931207FC743A1207FCD20375110402B8
:020C49000A4D52
:10024900E9D2E7C933E833F892D5EDD2E7CD33ECFB
:0702590033FC5002B2D52274
:10026000EC30E7100FBF000C0EBE00080DBD0004FF
:100270000BEB6014A2D5EB13FCED92E7FD2274FFAB
:10028000FCFDFEFF22E480F8A2D574FF13FC7D8004
:03029000E480EF18
:10029300F920E73624F950037907E4F42402FBE557
:1002A30082158270021583DBF6E024FB501BE960A4
:1002B30014E4F0E582158270021583E004F0B40AB9
:0D02C30008E4F0D9EE7401F00A22C2D52241
:1002D000ED33EC3392D5FA602AB4FF33EDC2E77BFD
:1002E000FF60067A0279F5E4227A0279FE20D504CD
:1002F0007A0279F9224E614E002B494E46002D4973
:100300004E4600E47A08F0A3DAFC7B00740722C0B2
:1003100083C082ECC0E0EDC0E0EEC0E0EFC0E0EAF8
:1003200075F010A4CAABF075F04DA42BFBE435F0CA
:10033000FCEA2410FAEB34C5FBEC34D9FCEDC2E73F
:10034000FF75F056A4F42411C5F0F434C58FF0A461
:100350002AE5F03BE43CF020E7141204FDD0E0FF76
:10036000D0E0FED0E0FDD0E0FC1201378014F404B0
:100370001204FDD0E0FFD0E0FED0E0FDD0E0FC12A2
:10038000002ED082D083E0FAEDD2E7CD33EC3324D7
:1003900082FBE4C3CF33CFCE33CECD33CD33DBF3CB
:1003A0007B0775F00A846004F0A31B0AE5F0F0A354
:1003B0008FF0740AA4FFACF08EF0740AA42CFEAC8B
:1003C000F050010C8DF0740AA42CFDE435F0F0A37C
:0503D000DBDE740722D2
:1003D50002027EE86480F8E933E83360110460F0D6
:1003E500ED33EC337009E8FCE9FDEAFEEBFF22048E
:1003F50060DED3EB9FEA9EE99DE8C2E78CF0C2F789
:1004050095F0400CE8CCF8E9CDF9EACEFAEBCFFB54
:1004150012024985D0F05804700320D5B3E8047062
:10042500075002B2D502028892D5EC0460F7E4CCFD
:10043500C0E0C398F8603B94186008400DD0E0FB1D
:10044500020260E4FBFAC9FC8028E830E406E4C94E
:10045500FBE4CAFCE830E305E4C9CACBFCE8540771
:100465006010F8C3E913F9EA13FAEB13FBEC13FC7C
:10047500D8F130F52FC3E49CFCEF9BFFEE9AFEED1F
:1004850099FDD0E0FBEF4E4D4C701222DB030202CA
:1004950085EC2CFCEF33FFEE33FEED33FDED30E75D
:1004A500EB020260EF2BFFEE3AFEED39FDD0E0FBEB
:1004B50050130BBB0003020288ED13FDEE13FEEF94
:0804C50013FFEC13FC020260BE
:1004CD003F8000004120000042C80000447A000037
:1004DD00461C400047C35000497424004B189680B9
:1004ED004CBEBC205A0E1BCA6753C21C749DC5AEB0
:1004FD00FB60065407601C232312052BEB54386058
:10050D000912051712052612002EECF8EDF9EEFA78
:10051D00EFCB22EB12052680F1543803241C9004F6
:10052D00CDFE93FC0EEE93FD0EEE930ECE93FF22B9
:100ED000020C4BE493A3F8E493A34003F68001F2E1
:100EE00008DFF48029E493A3F85407240CC8C33323
:100EF000C4540F4420C8834004F456800146F6DFF2
:100F0000E4800B0102040810204080900F50E47E22
:100F1000019360BCA3FF543F30E509541FFEE493E6
:100F2000A360010ECF54C025E060A840B8E493A3AD
:100F3000FAE493A3F8E493A3C8C582C8CAC583CAD8
:100F4000F0A3C8C582C8CAC583CADFE9DEE780BE90
:010FD500001B
:10053D00E709F608DFFA8046E709F208DFFA803EA0
:10054D0088828C83E709F0A3DFFA8032E309F6088D
:10055D00DFFA8078E309F208DFFA807088828C83F5
:10056D00E309F0A3DFFA806489828A83E0A3F608A9
:10057D00DFFA805889828A83E0A3F208DFFA804C83
:10058D0080D280FA80C680D4806980F2803380105A
:10059D0080A680EA809A80A880DA80E280CA8033C3
:1005AD0089828A83ECFAE493A3C8C582C8CCC5833B
:1005BD00CCF0A3C8C582C8CCC583CCDFE9DEE7800B
:1005CD000D89828A83E493A3F608DFF9ECFAA9F08A
:1005DD00EDFB2289828A83ECFAE0A3C8C582C8CCE0
:1005ED00C583CCF0A3C8C582C8CCC583CCDFEADEF9
:1005FD00E880DB89828A83E493A3F208DFF980CC5B
:10060D0088F0EF60010E4E60C388F0ED2402B40453
:10061D000050B9F582EB2402B4040050AF232345FA
:06062D00822390058D738D
:10063300BB010689828A83E0225002E722BBFE02C5
:09064300E32289828A83E49322F8
:10064C00BB010CE58229F582E5833AF583E0225063
:10065C0006E92582F8E622BBFE06E92582F8E222AD
:0D066C00E58229F582E5833AF583E49322C7
:10067900BB010689828A83F0225002F722BBFE0160
:02068900F3225A
:0E068B00C3E49FFFE49EFEE49DFDE49CFC2280
:10069900F8E0FBA3A3E0F925F0F0E58215827002EA
:0706A9001583E0FA38F0228E
:0906B000EBF0A3EAF0A3E9F0224B
:1006B900D083D082F8E4937012740193700DA3A3D0
:1006C90093F8740193F5828883E4737402936860E4
:0606D900EFA3A3A380DFE4
:1010BF00EFB40A07740D1210CA740A309811A89968
:1010CF00B8130CC2983098FDA899C298B811F63091
:0710DF0099FDC299F5992269
:1006DF00E709F60870FA8046E709F20870FA803EDB
:1006EF0088828C83E709F0A370FA807EE309F6080D
:1006FF0070FA8076E309F20870FA806E88828C8334
:10070F00E309F0A370FA806289828A83E0A3F60876
:10071F0070FA805689828A83E0A3F20870FA804AC1
:10072F0080D280FA80C680D4806580F280318010BC
:10073F0080A680EA809A80A880DA80E280CA803121
:10074F0089828A83ECFAE493A3C8C582C8CCC58397
:10075F00CCF0A3C8C582C8CCC583CC70E9800D8905
:10076F00828A83E493A3F60870F9ECFAA9F0EDFB03
:10077F002289828A83ECFAE0A3C8C582C8CCC583DC
:10078F00CCF0A3C8C582C8CCC583CC70EA80DD8904
:10079F00828A83E493A3F20870F980CE88F0ED2467
:1007AF0002B4040050C4F582EB2402B4040050BA22
:0907BF00232345822390072F73C8
:00000001FF
